:04080000F6EF0DF012
:08080800046ED8CF05F0E0CF2B
:1008100006F00001E9CF0CF0EACF07F0E1CF08F0D5
:10082000E2CF09F0D9CF0AF0DACF0BF0F3CF12F014
:10083000F4CF13F0FACF14F0F5CF15F0F6CF16F091
:10084000F7CF17F000C00EF001C00FF002C010F09B
:1008500003C011F0F2AA30EF04F0F2B4CAEF0BF0CB
:10086000A3A436EF04F0A4B48BEF0BF00EC000F09D
:100870000FC001F010C002F011C003F00CC0E9FF7E
:1008800007C0EAFF078E08C0E1FF09C0E2FF0AC007
:10089000D9FF0BC0DAFF12C0F3FF13C0F4FF14C07E
:1008A000FAFF15C0F5FF16C0F6FF17C0F7FF04509A
:1008B00006C0E0FF05C0D8FF1000F76ACA0FF66E49
:1008C000080EF7220900F55012000003FFFFFFFF9A
:1008D000FFFFFFFFFFFFFFFFFFFFF76AEA0FF66E64
:1008E000080EF7220900F5501200400040000000F9
:1008F00000000000000000000000000000000000F8
:1009000000000000000000000000F76A1A0FF66EF9
:10091000090EF7220900F55012000600FF0901A197
:1009200001190129081580257F7508954081021954
:10093000012908750895409102C0F76A4A0FF66EC2
:10094000090EF7220900F55012000000F76A5C0F4B
:10095000F66E090EF7220900F55012002000F76A22
:100960006E0FF66E090EF7220900F550120009020B
:100970002900010100807D0904000002030000003D
:100980000921000100012220000705810340000A1F
:100990000705010340000A00F76AA80FF66E090E6A
:1009A000F7220900F55012000100F76ABA0FF66E3F
:1009B000090EF7220900F55012001200F76ACC0F59
:1009C000F66E090EF7220900F5501200120110010F
:1009D000000000406104200000010102000160925B
:1009E000649465A402D06594FCD7659897EF0BF0EA
:1009F000400E0401016F040E01010C6F100E0CC1BA
:100A000003F4E8CF02F4880E0401006F046B040EB7
:100A1000076F500E066F000112006AA002D0E8DFD7
:100A20006A90659A9EEF0BF0676A6592A3EF0BF0F0
:100A30000101189117BF1881179F1751100803E281
:100A4000000E016E1AD018A10DD0036A17510001D3
:100A500034DFFF0802E1000E01D0010E016E01013A
:100A60000CD00BD0036A1751000127DFFF0802E109
:100A7000000E01D0010E016E010100011200010102
:100A800017511903F3CF01F0F4CF00F01A03F3501C
:100A9000002618511903F3500020026E00011200C5
:100AA000036A010116516A0FE96E0F0E0320EA6E08
:100AB000EF6A16C117F10001BBDF015228E0010106
:100AC000186B16C117F11A6B080E196F0001D7DFEA
:100AD000010101C0E9FF040E0224EA6EEF6A186BFF
:100AE00016C117F11A6B080E196F0001C8DF02C09A
:100AF00018F101C017F1040E01011727000E182389
:100B000017C1E9FF040E1825EA6EEF6A0001120012
:100B1000010E0101156F15510F0807E315C116F1FC
:100B20000001BEDF0101152BF6D700011200256A76
:100B3000246A01010B6B0B530AE1036A0B51260F68
:100B4000E96E000E0320EA6EEF6A0B2BF4D71B6AE6
:100B5000010E1C6E1A6A0001120065961200666A88
:100B6000646A676A656A636A6A6AD2DFE0DF160EE2
:100B70006A6E65A602D0F1DFFCD79F0E666E3D0E51
:100B8000646E609835DF030E1F6EA8EF0BF064846F
:100B900064986082ADEF0BF0659CB2EF0BF011C171
:100BA00020F012002068120014C101F013C100F0FF
:100BB0000066012A0900F5CFEEFF002EFBD7012EBB
:100BC000F9D7F86A120001010F6B245025104BE091
:100BD0000F513F0848E31D50FC0F33E2040F0001A2
:100BE0003FEF06F023C003F02250B9DEE8CF10F14A
:100BF000010127D023C003F0225087DEE8CF10F197
:100C000001011FD0B00E22240101116F7F0E23209D
:100C1000126FF86AF76E11C1F6FF010EEA6E100E40
:100C2000E96E146B010E136F0001BEDF010109D0E4
:100C300023C003F02250C2DEE8CF10F1010101D041
:100C40000101222AD8B4232A2450D8B42506240628
:100C50000F510F2B500FE96E040EEA6ED8B0EA2A3E
:100C600010C1EFFFB2D72450251004E10F51400806
:100C700001E01A6A0FC111F1000191DF1200E824AE
:100C8000F76AF736990FF66E0C0EF7220A00F55048
:100C9000FA6E0800F550F96EE40BF40B040C300CFE
:100CA00001010E6B236A226A1D6A04011351010AB5
:100CB000000109E0030A0DE0010A0FE0220A44E006
:100CC000030A5BE076D0256A120E246E030E1D6EB9
:100CD00072D0256A290E246E6ED0020E1D6E01019F
:100CE0000E6B0401125101010E5D1BE2B00E2224B5
:100CF0000F6F7F0E2320106FF86A10C1F7FF0FC12E
:100D0000F6FF010EEA6E110EE96E146B010E136F01
:100D100000014ADF010111512226000E23220E2B71
:100D2000E0D7B00E22240F6F7F0E2320106FF86AD9
:100D3000F76E0FC1F6FFEA6A240EE96E146B010E1E
:100D4000136F000131DF37D0036A04011251000133
:100D50002CDE036A226E03C023F0223C02D0235211
:100D60000AE023C003F02250FADD036A246E03C0B8
:100D700025F021D002D016DF2DD0036A04011451D2
:100D80000001DBDD036A226E03C023F0223C02D0A7
:100D900023520DE0010E1D6E036A0401145100017F
:100DA000D5DD036A246E03C025F005D002D0FADE3B
:100DB00011D0F8DE0FD00401175308E1255203E1EA
:100DC0002450165D03E2256A16C424F0010E1A6E43
:100DD0000001F9DE120001010D5306E1040E1F6E41
:100DE000000196DEEAD00101050E1F6E040E106FA1
:100DF000900E0F6F010E0E6F0E510F08D8A0DDD0B0
:100E00000EC116F100014CDE0101116B036A0E5197
:100E1000000153DDFF0867E0040E0101116FD89057
:100E20000E35036A000159DD0900F5CF03F0010119
:100E3000126F03C013F1186B0EC117F11A6B080E75
:100E4000196F00011CDE01C015F1010E0101012422
:100E5000016E000E0220036E01C0E9FF040E0324A0
:100E6000EA6E12C1EFFF186B0EC117F11A6B080E74
:100E7000196F000104DE01C015F1020E0101012409
:100E8000016E000E0220036E01C0E9FF040E032470
:100E9000EA6E10C1ECFFED520FC1EFFFD8900E3596
:100EA000036A00011ADD0900F5CF03F001010F27E5
:100EB00003501023880E146F13A101D0148113A3C3
:100EC00001D01483186B0EC117F11A6B080E196F3D
:100ED0000001D5DD010101C0E9FF040E0224EA6E24
:100EE00014C1EFFF0001036A01010E510001E5DCAE
:100EF000FF0848E001011183186B0EC117F11A6B4E
:100F0000080E196F0001BBDD02C016F101C015F11A
:100F1000040E01011527000E1623020E1525016E81
:100F2000000E1621036E01C0E9FF040E0324EA6ED1
:100F300010C1ECFFED520FC1EFFFD8900E35036AE0
:100F40000001CBDC0900F5CF03F001010F270350AE
:100F50001023186B0EC117F11A6B080E196F0001E0
:100F60008EDD02C016F101C015F1040E0101152736
:100F7000000E162315C1E9FF040E1625EA6E400E79
:100F8000EF6E000101011151060802E10E0E116F12
:100F9000036A0E51000191DC010803E0010111898F
:100FA0000001036A01010E516A0FE96E0F0E032062
:100FB000EA6E11C1EFFF0E2B1FD7000134EF08F0CE
:100FC00004011151000A00010DE0010A15E0020AB6
:100FD00021E0060A2CE0030A33E00E0A33E0010A9E
:100FE00039E049D01CC050F40401516B020E0101DC
:100FF000116F0001D4DD40D00401122D08D0010E84
:101000001C160101116B0001CADD03D004010001AF
:10101000C9DD32D00401122D07D01C820101116BF1
:101020000001BDDD03D004010001BCDD25D0020EAE
:101030001A6E12C421F00101116B0001B0DD1CD049
:101040002FDE1AD01BC050F4010E0101116F0001F8
:10105000A6DD12D00401125101080BE312C41BF0EB
:1010600012C40DF10001B7D60101116B000197DD2B
:101070000401000101D096DD90EF09F01BC00DF1D5
:1010800004011151000A000107E00A0A0EE0010AFA
:101090002EE00D0A42E043D00401506B516B020E6A
:1010A0000101116F00017BDD3BD001010D531CE0FC
:1010B000010E0D5D036A00016FDC016E0401145D19
:1010C000D8A002D0010110D0036A1451260FE96E96
:1010D000000E0320EA6EEFCF50F4010E0101116FF4
:1010E00000015DDD03D0010100015CDD19D00101CB
:1010F0000D5310E0036A04011451260FE96E000E2F
:101100000320EA6E12C4EFFF0101116B000147DDFD
:1011100003D00101000146DD03D0C2DD01D042DD74
:1011200090EF09F001010E910DBF0E810D9F0EA1F0
:1011300019D0186B0DC117F11A6B080E196F000149
:101140009EDC02C010F101C00FF1040E01010F2757
:10115000000E10230FC1E9FF040E1025EA6E880E61
:10116000EF6E0FD0186B0DC117F11A6B080E196FC7
:10117000000185DC010101C0E9FF040E0224EA6ED2
:10118000EF6A036A0D516A0F016E0F0E032201C050
:10119000E9FF03C0EAFFEF90000150EF09F0010101
:1011A0000E910DBF0E810D9F0EA119D0186B0DC1B0
:1011B00017F11A6B080E196F000161DC02C010F103
:1011C00001C00FF1040E01010F27000E10230FC103
:1011D000E9FF040E1025EA6E840EEF6E10D0186B36
:1011E0000DC117F11A6B080E196F000148DC0101DF
:1011F00001C0E9FF040E0224EA6E840EEF6E0001C6
:1012000058EF09F001010E910DBF0E810D9F0EA147
:1012100019D0186B0DC117F11A6B080E196F000168
:101220002EDC02C011F101C010F1040E01011027E3
:10123000000E112310C1E9FF040E1125EA6EEFCF55
:101240000FF110D0186B0DC117F11A6B080E196F42
:10125000000115DC010101C0E9FF040E0224EA6E61
:10126000EFCF0FF10FAF02D00FB502D0000E01D0BB
:10127000010E016E000164EF09F014C417F118ECBF
:1012800005F001522EE004011151010A000105E0B0
:10129000020A0BE0030A11E023D014C40DF142D777
:1012A0000101116B00017BDC1CD014C40DF177D758
:1012B0000101116B000173DC14D00401506B516B00
:1012C00014C40DF100019ED7015204E0010E040187
:1012D000506F0001020E0101116F000160DC01D0AE
:1012E00061DC90EF09F00401115100015BDC90EF2B
:1012F00009F01A6A040110517F0B000A000107E08F
:10130000010A07E0030A07E0230A07E008D058D6DD
:1013100007D0B4D605D0B1D703D0E5D701D042DC91
:101320002BEF0BF00101186B0DC117F11A6B080EB2
:10133000196F00013FEC05F0010101C0E9FF040E47
:101340000224EA6EEFCF0FF10E51020806E10FAD55
:1013500002D00E6B02D0010E0E6F0E5103081CE17D
:10136000840E0F6F186B0DC117F11A6B080E196FF1
:1013700000013FEC05F002C013F101C012F1040EB0
:1013800001011227000E132312C1E9FF040E1325D9
:10139000EA6E840EEF6E07D00E2D03D0C80E0F6FCD
:1013A00002D0880E0F6FD8900D35036A00016DECE6
:1013B00004F00900F5CF03F00101106F03C011F133
:1013C000186B0DC117F11A6B080E196F00013FEC75
:1013D00005F001C012F1010E01010124016E000EA1
:1013E0000220036E01C0E9FF040E0324EA6E10C15F
:1013F000EFFF11A101D00F8111A301D00F83186B52
:101400000DC117F11A6B080E196F00013FEC05F0C2
:10141000010101C0E9FF040E0224EA6E0FC1EFFFD3
:1014200000011200036A010112516A0FE96E0F0EEA
:101430000320EA6EEF521BE0186B12C117F11A6B12
:10144000080E196F00013FEC05F002C014F101C055
:1014500013F1040E01011327000E142313C1E9FF39
:10146000040E1425EA6EEFCF15F115AF02D0000E71
:1014700001D0010E016E000141EF0AF00DC112F121
:10148000D1D70152D8B49BD00101186B0DC117F10F
:101490001A6B080E196F00013FEC05F002C013F142
:1014A00001C012F1040E01011227000E1323010ED8
:1014B0001225016E000E1321036E01C0E9FF040E18
:1014C0000324EA6E0EC1EFFF1051020820E1186BF1
:1014D0000DC117F11A6B080E196F00013FEC05F0F2
:1014E00002C013F101C012F1040E01011227000E17
:1014F000132312C1E9FF040E1325EA6EEFCF11F199
:1015000011AD02D0106B02D0010E106F1AD0105125
:10151000040817E1186B0DC117F11A6B080E196F4B
:1015200000013FEC05F0010101C0E9FF040E0224B7
:10153000EA6EEFCF11F111AD03D0010E106F01D0A3
:10154000106B102D03D0480E116F02D0080E116FD2
:10155000186B0DC117F11A6B080E196F00013FECE3
:1015600005F002C013F101C012F1040E01011227AF
:10157000000E132312C1E9FF040E1325EA6E11C1F8
:10158000EFFF186B0DC117F11A6B080E196F0001F0
:101590003FEC05F002C013F101C012F1040E01018D
:1015A0001227000E132312C1E9FF040E1325EA6E61
:1015B000EF508009EF6E010E016E04D00001000EA5
:1015C000016E01010001120001010D5300E1000153
:1015D00012000EC163FF01010E5303E0040E1F6EE3
:1015E00002D0020E1F6E0001FBEF0AF01B6A1A6A9E
:1015F00021C00EF1EED70CEF0BF001010D530DE100
:101600001A2C05D00001E3EC05F006D001011A50B8
:10161000020803E10001EAD70101000112001E30B7
:1016200001010B6F0B330B331F0E0B171E524EE1D4
:10163000040100513C0B01010C6F430E0401001723
:1016400001010C51340825E104010451800B01E033
:10165000046B00014ED66098203C07D001010D6B51
:10166000030E0E6F00015EDE12D001010D6B020E43
:101670000E6F000157DE2050FE0809E001010D6BDE
:101680000F6B20C00EF1040E106F0001F7DE1CD0AE
:1016900001010C51040819E10D6B000195DF0101F6
:1016A0000D6B020E0E6F00013DDE2050FE080CE0B7
:1016B000203C01D009D001010D6B0F6B20C00EF151
:1016C000010E106F0001DADE010122D01E50040865
:1016D00012E120680D6B000190DF203C01D009D0A1
:1016E00001010D6B0F6B20C00EF1020E106F000197
:1016F000C5DE0DD001011EB406D00BC10DF10001F5
:1017000063DF05D001010BC10DF1000176DF01019E
:101710000001BEEF0BF0A4941F52D8B439D065522B
:10172000D8B436D065A403D064B4EFEF04F060B24F
:101730002FD065AA03D064BA0DEF05F065A203D0DF
:1017400064B214EF05F065A003D064B0AFEF05F00C
:1017500065A803D064B8C7EF05F065AC03D064BCDE
:10176000CCEF05F001010A6B65A60AD064A608D08B
:1017700061CF1EF00001ADEC05F051D703D001019F
:1017800006D0000101010A510A2B0308EDE2000115
:1017900036EF04F001010A6B5DB040D000016153E7
:1017A00002E1625304E06151D8B46207610762C08C
:1017B00002F061C001F00232013202320132023223
:1017C00001C0BEFF02320230300B006EBD50CF0BA5
:1017D0000010BD6E01010C6B60C00BF10C330B33BC
:1017E0000C330B330C330BC190FF0C330C31300B2B
:1017F000006E9750CF0B0010976E0001605180086B
:1018000001E163696051030802E1010E636F6351F6
:101810006025606F5F6A5E6A1FD001015D92270ECE
:101820000001626FD80E616F62C002F061C001F00A
:101830000232013202320132023201C0BEFF0232F4
:101840000230300B006EBD50CF0B0010BD6E606BD0
:10185000906A9750CF0B976EF29436EF04F0EA6AD5
:10186000F70EE96EEF500EE00F0E016E006A002ECB
:10187000FED7012EFBD78F0E006E002EFED7000084
:10188000EF2EF2D71200F66BF651110839E3F76B21
:10189000F751020833E3F86BF85107082DE3F651CE
:1018A000030DF350FA6BF96F036AF751F925016ED6
:1018B000FA5103220150270FE96E000E0320EA6E51
:1018C000EFCF00F0070ED880F855FA6FFA51016E8D
:1018D00004E0D8900032012EFCD700A006D0C950F9
:1018E000F80EC96EC730FEE305D0C950800EC96E30
:1018F000C730FEE3F82BD0D7F72BCAD7F62BC4D7C7
:101900009F0E006E002EFED700D01200C69A210E48
:10191000C66E000EC76EB7DF94EF0EF0F951030DDF
:10192000F350FE6BFD6F270EFD25E96E000EFE21C4
:10193000EA6EFAC0EFFFF951030DF350FE6BFD6F35
:10194000010EFD25016E000EFE21036E0150270FD2
:10195000E96E000E0320EA6EFBC0EFFFF951030DA4
:10196000F350FE6BFD6F020EFD25016E000EFE2191
:10197000036E0150270FE96E000E0320EA6EFCC0D3
:10198000EFFF1200196AF2BE198EF29E97EC05F075
:1019900019BEF28E6092606A608C00D000D00000A8
:1019A000609C140E626E646A6086010E1F6EDCEF2E
:1019B0000CF060B601D0E6D71F2C0BD060BA09D06E
:1019C000656A646AA384C00EF212110E646E020E80
:1019D0001F6EA6EF0EF01B50016EA7EF0EF0196AF6
:1019E000F2BE198EF29E0101186BFBC017F11A6B43
:1019F000080E196F00013FEC05F019BEF28E01C010
:101A000005F1020E01010124016E000E0220036E99
:101A100001C0E9FF040E0324EA6EECCF01F1ED52A0
:101A2000EFCF00F1196AF2BE198EF29E186BFBC05F
:101A300017F11A6B080E196F00013FEC05F019BE83
:101A4000F28E01C005F1010E01010124016E000EAC
:101A50000220036E01C0E9FF040E0324EA6E046B4A
:101A6000EFCF03F1196AF2BE198EF29E186BFBC01C
:101A700017F11A6B080E196F00013FEC05F019BE43
:101A8000F28E010101C0E9FF040E0224EA6EEFCFDD
:101A900002F102A101D0048102A301D00483045108
:101AA0000001FF5D0DE308E1FE510101035DD8A0D7
:101AB00002D0000105D0000104C1FFF003C1FEF017
:101AC000FDC0EAFFFCC0E9FF01C1E2FF00C1E1FF88
:101AD000FFC002F0FEC001F0015202E0022A02D073
:101AE000025206E0E6CFEEFF012EFCD7022EFAD717
:101AF000FEC001F0FFC002F089EF0DF0F6C0FBF070
:101B0000F8C0FDF0F7C0FCF0FAC0FFF0F9C0FEF03D
:101B100066D702C0FAF001C0F9F0196AF2BE198E58
:101B2000F29EF6C00DF1020E01010E6F000192EC63
:101B300009F019BEF28EF9C001F0FAC002F0B3EF5D
:101B40000EF0949E8B9E080E016E00D00000018E58
:101B50000ED0019EF633D8B08B8ED8A08B9E018C10
:101B600006D0019C012EF6D700D000008B8E010E0E
:101B7000006EE96AE92EFED7002EFBD7990EE96EBA
:101B8000E92EFED7000001BEE4D701BCEAD74CEF36
:101B90000FF0948C82BCFED7080E006EF66B008EA0
:101BA0000ED0009E0CD0D89082BCD880F633008C2A
:101BB00006D0009C002EF7D7F6C001F015D0010E1C
:101BC000E96E000E00BE550E016E012EFED7E92E05
:101BD000F8D7980E00BE290E016E012EFED700BE6A
:101BE000E0D700BCE6D7DFD75DEF0FF0F86AD09EF4
:101BF000078E700ED36ED26A9B6A949E8B8E5D9018
:101C00005D925F6A5E6A606B2E0E626FE00E616FBE
:101C1000010E636F0F015B6B5C6B5D6B9A6A996A77
:101C2000986A03D0364027000000000EF86E1C0EA4
:101C3000F76E240EF66E0900F550006E000A13E0F0
:101C40000900F550016EE8BE05D00F0BEA6E0900E1
:101C5000F5CFE9FF01BC090001AC0900F5CFEEFFAB
:101C6000004EE9D7F9D7F86A0001E66BE791C15059
:101C7000F00BC16E290E0F015B6F000E5C6F5D6F84
:101C8000C050C00B0709C06EC09EC280810ED56EC9
:101C9000F28AC00EF212000E0609BA6E6A0EBB6E10
:101CA0000001EF6BEE6BED69EC69F36BF26BF16BBE
:101CB000F06B8B940C0EBD6EB76AB66A010EB96EEE
:101CC0000F0159918B920C0E976E5997906A97500D
:101CD000CF0B976E0001F46BF56B8A868A8E948029
:101CE0008B908B80060EF66FFA0EF76FB8DDF62F2D
:101CF000FBD78B90000E936E946EF46BF4514008FA
:101D000012E3036AF451640FE96E000E0320EA6ED9
:101D1000EF6A036AF451A50FE96E000E0320EA6E24
:101D2000EF6AF42BEBD7F2D5F46BF45111080BE307
:101D3000F4C0F9F0100EFA6F200EFB6F100EFC6F5E
:101D4000EDDDF42BF2D79FDD8A8E33D644D60152D7
:101D5000D8B49BD0010EF66FF86B640EF76FFA6B78
:101D6000400EF96FCBD6F36BF26BF16B84C0F0F0E1
:101D7000F2C0F3F0F1C0F2F0F0C0F1F0F76BF75100
:101D80008311F06FF2C0F3F0F1C0F2F0F0C0F1F0A7
:101D9000F76BF7518211F06FF2C0F3F0F1C0F2F07F
:101DA000F0C0F1F0F76BF7518111F06FF051EC5D7D
:101DB00009E1F151ED5D06E1F251EE5D03E1F35110
:101DC000EF5D63E0F46BF4513F081BE3036AF451E9
:101DD000A50F016E000E032201C0F6F003C0F7F05C
:101DE000036AF451640FE96E000E0320EA6EEFCF30
:101DF000F8F0F7C0EAFF01C0E9FFF8C0EFFFF42BED
:101E0000E2D7642D1BD0F29CF29EF2BEFDD7F250B9
:101E1000006EF29EA96A9B0EA86EA69CA69EA68442
:101E20000F01550EA76EAA0EA76EA682A6B2FED708
:101E3000A6940050F212FF001FD000016451020866
:101E400005E1010EF76F0BDDFF0017D064510308A9
:101E500014E1F250006EF29EA96AA868A69CA69EA4
:101E6000A6840F01550EA76EAA0EA76EA682A6B273
:101E7000FED7A6940050F2120001F3C0EFF0F2C0BA
:101E8000EEF0F1C0EDF0F0C0ECF080B812D0E7B1A8
:101E90000FD0800EF66F55D6E7818B908B80140E95
:101EA000F66FFA0EF76FDBDCF62FFBD78B905D90A9
:101EB00001D0E79182BC3FD06CD601C0E8F0E85178
:101EC000050804E15D80010EE66F35D0E851040895
:101ED00010E15D90E66BF46BF451110808E3F4C077
:101EE000F9F0FA6BFB6BFC6B19DDF42BF5D7CBDC4F
:101EF00022D0E62D03D0E8C0E9F01CD0E65102085C
:101F000003E1E8C0EAF016D0E651030813E1E8C0A7
:101F1000EBF0E66BF46BF45111080BE3F4C0F9F04D
:101F2000EAC0FAF0E9C0FBF0EBC0FCF0F7DCF42B00
:101F3000F2D7A9DCE62B81A403D05D805D9211D09D
:101F40005D905DB20ED05D82F46BF451110808E330
:101F5000F4C0F9F0FA6BFB6BFC6BE0DCF42BF5D70B
:061F600092DCF2D6030042
:107FB000040309041203470061006D0065005800C6
:107FC0005500620065002803470061006D006500F0
:107FD0005800550062006500200044006500620002
:107FE00075006700200070006F00720074001203BB
:107FF00031003200330034003500360037003800DD
:020000040030CA
:0E0000002308593C00D381000FC00FE00F40D1
:00000001FF
;PIC18LF25K50
;CRC=7761  CREATED="26-Dec-18 17:13"
